:020000040800F2
:10800000F8DF0020F5B70008859000088F90000881
:1080100099900008A3900008AD90000800000000AF
:108020000000000000000000000000006182000865
:10803000C1900008000000009582000853EE00087F
:108040000FB800080FB800080FB800080FB80008F4
:108050000FB800080FB800080FB800086BD500086B
:108060000FB80008C5D500080FB800080FB8000801
:108070000FB800080FB800080FB800080FB80008C4
:108080000FB800080FB800080FB800080FB80008B4
:108090000FB800080FB800080FB80008A1D50008F5
:1080A0000FB800080FB800080FB800080FB8000894
:1080B0000FB80008BDC300080FB800080FB80008CB
:1080C0000FB800080FB800080FB800080FB8000874
:1080D0000FB80008192201080FB800080FB80008EF
:1080E0000FB800080FB800080FB800080FB8000854
:1080F0000FB800080FB800080FB800080FB8000844
:108100000FB800080FB800080FB800080FB8000833
:108110000FB800080FB8000835C400080FB80008F1
:108120000FB800080FB800080FB800080FB8000813
:1081300000F002F800F080F80AA090E8000C8244F9
:108140008344AAF10107DA4501D100F075F8AFF2D6
:10815000090EBAE80F0013F0010F18BFFB1A43F025
:1081600001031847D8C20100F8C201000A444FF0C9
:10817000000C10F8013B13F0070408BF10F8014B86
:108180001D1108BF10F8015B641E05D010F8016BCB
:10819000641E01F8016BF9D113F0080F1EBF10F82F
:1081A000014BAD1C0C1B09D16D1E58BF01F801CB52
:1081B000FAD505E014F8016B01F8016B6D1EF9D5D5
:1081C0009142D6D3704700000023002400250026EA
:1081D000103A28BF78C1FBD8520728BF30C148BF2A
:1081E0000B607047642917F01D87752917F01A87EF
:1081F000732918F064830020704710B510BD7047D4
:1082000054454D434F50574D45544552000000359D
:10821000300100001FB518F08CF818F04FFC040076
:10822000002000211AF088F9401C60600020002125
:108230001AF098F9E0601FBD18F00CFE1146FFF728
:10824000E9FF00F06BFE19F07DF803B4FFF7D5FFEE
:1082500003BC06F09FFE000080F308887047000012
:108260001A4B19680868B0E8F00F80F309884FF0DE
:10827000000080F311884EF00D0E704700000000E2
:1082800003480068006880F3088862B600DF00BF1A
:1082900008ED00E0EFF309800C4B1A6820E9F00FBD
:1082A000106008B54FF00F0080F3118806F028FB2E
:1082B0004FF0000080F31188BDE808401968086895
:1082C000B0E8F00F80F30988704700BF5C00002021
:1082D00001B44FF00F0080F3118801BC704701B466
:1082E0004FF0000080F3118801BC70470B49D1F8B2
:1082F00000C04A685CF8043B1068184442F8040B5C
:108300008C4528BFA1F1DC0C8A4228BFA1F1DC0218
:10831000C1F800C04A6020F0004070478CD30020B4
:1083200010B501210D2001F069FF0121FE4801F087
:108330007AFD10BD10B5FD48007860B90120FB49F9
:1083400008704FF4FA71FA4806F07AFF42F21071A1
:10835000F84806F075FF08F0A4FEF74908800846C3
:108360000088002824DD4FF4006006F0E4FFF349A4
:10837000898988420BD1012007F0B4F9EE480088C2
:10838000002858DD08F0A3FC08F093FE53E040F607
:10839000060006F0D0FFE949898988424BD108F0F0
:1083A0002AFCE5480088002845DD08F082FE42E00E
:1083B000DF4806F058FF00283DD0DD4806F048FFB2
:1083C000002415E000BF04EB8400DD4901EBC00090
:1083D000DC490860022007F085F900BFD648008814
:1083E000002803DD08F073FC08F063FE601CC4B2D3
:1083F000142CE7DB002413E000BFD34800EB84100B
:10840000D2490860052007F06DF900BFCA4800880E
:10841000002803DD08F05BFC08F04BFE601CC4B2D2
:108420000A2CE9DBC34806F01EFF20B1C14806F064
:108430000FFF08F032FB10BD002405E0322006F0EB
:10844000DCFEC3A017F070FD08F01CFD0028F5D17C
:10845000642006F0D2FE00BFFFF76CFFC34800782F
:10846000012803D0C2480078012809D1601CC4B299
:108470000A2C05D100240020BC4908700AF0AFF88E
:10848000052006F0BAFEE7E709F0CCFF642006F00D
:10849000B4FE00BFB748007850B1B6480078401E1F
:1084A000B449087008460078012801D10EF001FA9D
:1084B000B1480078002809DDAF480078401EAE4979
:1084C00008700846007808B909F09EFE052006F0FD
:1084D00094FEDFE7002404F0C6FB642006F08DFE66
:1084E00033E0012400252BE0E0B204F0F6FDE0B219
:1084F00004F045FFE0B205F016F8E0B205F0B9F877
:10850000E0B205F02BF904EB84009C4911F830002F
:10851000012810D1E0B205F082FB30B1002004EB5D
:108520008401964A02F8310005E0022004EB840140
:10853000924A02F83100642006F05FFE681C45B2E2
:108540001E2DD1DB642006F058FECAE71CB503F0EF
:1085500047FC002003F048FC89490870012003F023
:1085600043FC87494870022003F03EFC8449887030
:10857000032003F039FC8249C87008460078FF28C0
:1085800025D108464078FF2821D108468078FF2869
:108590001DD10846C078FF2819D101200870487005
:1085A00002208870C87008460178002003F048FC5B
:1085B00073484178012003F043FC71488178022020
:1085C00003F03EFC6E48C178032003F039FC012122
:1085D000042003F035FC0021052003F031FC0620C7
:1085E00003F002FC6649087108460079FF2802D0B2
:1085F0000846007938B9FE206149087108460179BA
:10860000062003F01DFC49205D498873082003F013
:10861000EBFB5B49C8730846C07BFF2802D00846C5
:10862000C07B38B902205649C8730846C17B082070
:1086300003F006FC102003F0D7FB514948731120CA
:1086400003F0D2FB4E490874152003F0CDFB4C49D2
:1086500008730846007B042806DD012008730846DD
:10866000017B152003F0ECFB012045490873084607
:10867000007B052836D2DFE800F0030D17212B0020
:108680004FF416503E49886006F09DFC06203D4997
:10869000087033E04FF496403949886006F093FC47
:1086A00003203849087029E04FF4164034498860A7
:1086B00006F089FC0220334908701FE04FF4614046
:1086C0002F49886006F07FFC01202E49087015E0D4
:1086D0004FF4E1302A49886006F075FC01202949F1
:1086E00008700BE00420264908734FF4E1308860DD
:1086F00006F069FC01202349087000BF00BF002478
:1087000007E004F1280003F06FFB0DF80400601C83
:10871000C4B2062CF5DB9DF80000FF2874D19DF84B
:108720000100FF2870D12FE000023000140000206B
:10873000040000200C000020DC00002088550020F0
:108740008C5D0020E4000020D4600020E8000020C0
:108750007461706465765F696E697428292066614A
:10876000696C6564202E2E2E0D0A00002201002067
:10877000000000202C0100202A010020B803002066
:10878000386B00202B0100209DF80200FF283BD110
:108790009DF80300FF2837D19DF80400FF2833D14E
:1087A0009DF80500FF282FD104208DF8000002203D
:1087B0008DF8010035208DF80200AF208DF8030000
:1087C00000208DF8040001208DF805009DF80010B0
:1087D000282003F035FB9DF80110292003F030FB21
:1087E0009DF802102A2003F02BFB9DF803102B208C
:1087F00003F026FB9DF804102C2003F021FB9DF8CC
:1088000005102D2003F01CFB002405E01DF80410CA
:10881000FE480155601CC4B2062CF7DB002407E0BB
:1088200004F12F0003F0E0FA0DF80400601CC4B25C
:10883000042CF5DB9DF80000FF282BD19DF80100EA
:10884000FF2827D19DF80200FF2823D19DF80300BF
:10885000FF281FD1C0208DF80000A8208DF801004E
:1088600000208DF80200B7208DF803009DF800105D
:108870002F2003F0E5FA9DF80110302003F0E0FA14
:108880009DF80210312003F0DBFA9DF8031032202E
:1088900003F0D6FA002409E01DF80410DB48801D1F
:1088A0000155015D11300155601CC4B2042CF3DB8D
:1088B0002E2003F099FA8DF800009DF800000028A2
:1088C00007DD01208DF800009DF800102E2003F038
:1088D000B7FA9DF80000CD491439887700208877D1
:1088E0000846807F81F82F00002407E004F1330060
:1088F00003F07AFA0DF80400601CC4B2042CF5DB16
:108900009DF80000FF2828D19DF80100FF2824D100
:108910009DF80200FF2820D19DF80300FF281CD1FC
:108920008DF800008DF801008DF8020000208DF810
:1089300003009DF80010332003F082FA9DF8011027
:10894000342003F07DFA9DF80210352003F078FA08
:108950009DF80310362003F073FA002409E01DF897
:108960000410AA480B300155015D11300155601CFF
:10897000C4B2042CF3DB002407E004F1370003F059
:1089800033FA0DF80400601CC4B2042CF5DB9DF82A
:108990000000FF282BD19DF80100FF2827D19DF86A
:1089A0000200FF2823D19DF80300FF281FD1C0201B
:1089B0008DF80000A8208DF8010000208DF802003D
:1089C00004208DF803009DF80010372003F038FADA
:1089D0009DF80110382003F033FA9DF80210392079
:1089E00003F02EFA9DF803103A2003F029FA002430
:1089F00009E01DF8041085480F300155015D113064
:108A00000155601CC4B2042CF3DB3B2003F0ECF9ED
:108A10008DF800009DF80000FF2807D100208DF898
:108A200000009DF800103B2003F00AFA9DF80000BA
:108A30007649143981F82700084690F8270081F814
:108A400038003C2003F0D0F98DF800003D2003F001
:108A5000CBF98DF801009DF80000FF2812D19DF898
:108A60000100FF280ED14FF4FB70684914390885C6
:108A70000846008D000A8DF80000084690F828008E
:108A80008DF801009DF801009DF8001040EA0120DA
:108A90005E49143908850846008D4887002081F812
:108AA0003C00C8743E2003F09FF98DF800003F2081
:108AB00003F09AF98DF801009DF801009DF800106F
:108AC00040EA012052490880402003F08DF98DF8DA
:108AD0000000412003F088F98DF80100422003F0E6
:108AE00083F98DF80200432003F07EF98DF803002E
:108AF0009DF8000000069DF8011040EA01409DF835
:108B0000021040EA01209DF80310084340494860E4
:108B1000442003F069F98DF80000452003F064F962
:108B20008DF80100462003F05FF98DF80200472020
:108B300003F05AF98DF803009DF8000000069DF837
:108B4000011040EA01409DF8021040EA01209DF822
:108B5000031008432E498860482003F045F98DF83A
:108B60000000492003F040F98DF801009DF8010054
:108B70009DF8001040EA0120264908804A2003F0B1
:108B800033F98DF800004B2003F02EF98DF8010029
:108B90004C2003F029F98DF802004D2003F024F950
:108BA0008DF803009DF8000000069DF8011040EAD2
:108BB00001409DF8021040EA01209DF8031008438F
:108BC000144948604E2003F00FF98DF800004F2043
:108BD00003F00AF98DF80100502003F005F98DF833
:108BE0000200512003F000F98DF803009DF8000009
:108BF00000069DF8011040EA01409DF8021040EA8D
:108C000001209DF803100843024905E04C6B002049
:108C100070030020940300208860522003F0E4F8E1
:108C20008DF80000532003F0DFF88DF801009DF867
:108C300001009DF8001040EA0120F349888154208A
:108C400003F0D2F88DF80000552003F0CDF88DF830
:108C50000100562003F0C8F88DF80200572003F0F9
:108C6000C3F88DF803009DF8000000069DF8011080
:108C700040EA01409DF8021040EA01209DF80310EF
:108C80000843E1490861582003F0AEF88DF8000070
:108C9000592003F0A9F88DF801005A2003F0A4F838
:108CA0008DF802005B2003F09FF88DF803009DF81B
:108CB000000000069DF8011040EA01409DF80210F6
:108CC00040EA01209DF803100843CF4948615C2029
:108CD00003F08AF88DF800005D2003F085F88DF828
:108CE00001009DF801009DF8001040EA0120C749ED
:108CF00088815E2003F078F88DF800005F2003F093
:108D000073F88DF80100602003F06EF88DF8020012
:108D1000612003F069F88DF803009DF8000000065B
:108D20009DF8011040EA01409DF8021040EA012040
:108D30009DF803100843B5490861622003F054F818
:108D40008DF80000632003F04FF88DF801006420D7
:108D500003F04AF88DF80200652003F045F88DF81D
:108D600003009DF8000000069DF8011040EA014054
:108D70009DF8021040EA01209DF803100843A34922
:108D80004861662003F030F88DF80000672003F09A
:108D90002BF88DF801009DF801009DF8001040EAC5
:108DA000012099490883682003F01EF88DF800001F
:108DB000692003F019F88DF801006A2003F014F817
:108DC0008DF802006B2003F00FF88DF803009DF87A
:108DD000000000069DF8011040EA01409DF80210D5
:108DE00040EA01209DF8031008438749C8616C20C0
:108DF00002F0FAFF8DF800006D2002F0F5FF8DF80B
:108E000001006E2002F0F0FF8DF802006F2002F0EA
:108E1000EBFF8DF803009DF8000000069DF801109F
:108E200040EA01409DF8021040EA01209DF803103D
:108E3000084375490862702002F0D6FF8DF80000E3
:108E4000712002F0D1FF8DF801009DF801009DF81E
:108E5000001040EA01206D490883722002F0C4FF2F
:108E60008DF80000732002F0BFFF8DF80100742020
:108E700002F0BAFF8DF80200752002F0B5FF8DF800
:108E800003009DF8000000069DF8011040EA014033
:108E90009DF8021040EA01209DF8031008435B4949
:108EA000C861762002F0A0FF8DF80000772002F064
:108EB0009BFF8DF80100782002F096FF8DF80200EC
:108EC000792002F091FF8DF803009DF80000000664
:108ED0009DF8011040EA01409DF8021040EA01208F
:108EE0009DF80310084349490862152248497A2031
:108EF00003F01AF8142002F077FF464988740846F8
:108F0000807C032809D00846807C30B10320887417
:108F10000846817C142002F093FF1CBD1FB53E491A
:108F2000080300F038FA4FF4407000F0FDF94820D3
:108F300006F014F9FFF70AFB38A016F0F5FF03F06E
:108F4000C5F80221642003F048FA00200123CDE98E
:108F5000003002900346802232A10390344805F08D
:108F600061FA00200123CDE90030029003468022FF
:108F700030A10390314805F055FA00200323CDE9D4
:108F80000030029003464FF480722DA103902E48CA
:108F900005F048FA00200323CDE900300290034693
:108FA0004FF4C07229A10390294805F03BFA002034
:108FB0000223CDE90030029003464FF4807225A1D0
:108FC0000390274805F02EFA00200223CDE9003057
:108FD000029003464FF4807222A10390254805F0C9
:108FE00021FA00200323CDE90030029003464FF41C
:108FF000C07221A10390224805F014FA05F09AFDF1
:10900000002004B010BD0000700300209403002075
:109010006C720020386B0020008000086D61696E62
:109020000A0D0000506F7765724D6574657200001F
:10903000D58400084C454430000000008BB900087E
:10904000434F4D4D00000000898400084E455400F8
:1090500039840008416E616C6F67496E70757400E9
:10906000D76C0108416E616C6F674F7574707574D1
:1090700000000000896D01084D53545000000000AD
:109080000580010810B516A016F04EFF10BD02E0D5
:1090900016A016F049FFFBE702E018A016F044FF07
:1090A000FBE702E018A016F03FFFFBE702E019A083
:1090B00016F03AFFFBE710B51AA016F035FF10BD09
:1090C00010B51AA016F030FF10BD10B519A016F09B
:1090D0002BFF10BD10B519A016F026FF10BD000023
:1090E0004E4D49206661756C740D0A0068617264AA
:1090F000206661756C740D0A000000004D656D20DE
:109100004661756C740D0A00427573204661756C7A
:10911000740D0A005573616765204661756C740DA6
:109120000A0000005356430D0A00000044656275B2
:10913000670D0A0050656E0D0A00000053797354E4
:1091400069636B0D0A0000000CB5002001900090CF
:109150006C48006840F480306A49086000BF694884
:10916000006800F4003000900198401C01900098C5
:1091700018B90198B0F5A06FF1D16248006800F409
:10918000003010B10120009001E000200090009814
:10919000012843D15C48006840F010005A4908603B
:1091A0000846006820F0030008600846006840F0A8
:1091B00002000860534840685249486008464068C9
:1091C00048600846406840F480604860084640684F
:1091D00020F47C1048600846406840F4E81048607D
:1091E0000846006840F08070086000BF454800688D
:1091F00000F000700028F9D04248406820F00300D9
:10920000404948600846406840F00200486000BF9E
:109210003C48406800F00C000828F9D10CBD10B59E
:10922000FFF792FF10BD10B53648006840F001000E
:10923000344908600846406834490840314948606C
:1092400008460068324908402E4908600846006810
:1092500020F4802008600846406820F4FE00486042
:109260004FF41F008860FFF7DAFF4FF000602949D4
:10927000086010BD10B5002100200022214B5B6862
:1092800003F00C0121B1042906D0082928D107E0F8
:10929000214B224C236027E01F4B204C236023E00E
:1092A000184B5B6803F47010164B5B6803F4803254
:1092B000022303EB904022B9194B4343174C236020
:1092C0000DE0104B5B6803F4003323B1144B4343B0
:1092D000124C236003E0104B4343104C236003E027
:1092E0000D4B0E4C236000BF00BF064B5B68C3F301
:1092F00003130C4CE15C094B1B68CB40074C23600B
:1093000010BD000000100240002002400000FFF8E5
:10931000FFFFF6FE08ED00E000127A0018000020C2
:1093200000093D001C00002031490143314A116011
:10933000704770B5002100230F22C47804B32D4C70
:10934000246804F4E064C4F5E064210AC1F1040374
:10935000CA40447804FA03F1847814402143090197
:10936000254C0678A155047804F01F050124AC4073
:1093700005786D11AD0005F1E025C5F8004109E063
:10938000047804F01F050124AC401C4D06787611CA
:1093900045F8264070BD1A4A0A400243154B1B1F70
:1093A0001A60704739B1134A121D12680243114BFB
:1093B0001B1D1A6006E00F4A121D126882430D4BF6
:1093C0001B1D1A607047042808D14FF0E02109697D
:1093D00041F004014FF0E022116107E04FF0E0217D
:1093E000096921F004014FF0E0221161704700008B
:1093F0000000FA050CED00E000E400E080E100E090
:1094000080FFFF1F10B50446FA48844208D10121AD
:10941000401500F00DFF0021601500F009FF17E076
:10942000F548844208D10121001500F001FF002118
:10943000201500F0FDFE0BE0F048844208D1012128
:10944000C80300F0F5FE00214FF4004000F0F0FEEC
:1094500010BD30B50246002000235068E84C204083
:109460000D790C6844EA0524204350609068E54C6F
:109470002040D1E902542C434D7944EA450420436D
:109480009060D06A20F470000C7C641EE4B2234328
:1094900040EA0350D06230BD00210160017141718A
:1094A0008160C16001210174704721B1826842F07E
:1094B0000102826003E0826822F00102826070474C
:1094C00021B1826842F48072826003E0826822F4F3
:1094D00080728260704710B50023CBB21AB1446825
:1094E0001C43446002E044689C43446010BD8168B2
:1094F00041F0080181607047014600208A6802F04F
:1095000008020AB1012000E000207047816841F0A4
:10951000040181607047014600208A6802F004025D
:109520000AB1012000E00020704721B1826842F4B6
:10953000A002826003E0826822F4A0028260704789
:10954000014600208A6802F480020AB1012000E08E
:109550000020704710B50A4600210023416821F41D
:109560006041531E41EA4331416010BD21B1426860
:1095700042F40062426003E0426822F4006242600A
:109580007047F0B504460D4600200021092D11DD7D
:10959000E068A5F10A0606EB4607072606FA07F17A
:1095A0008843A5F10A0606EB460603FA06F10843CE
:1095B000E0600CE0206905EB4507072606FA07F195
:1095C000884305EB450603FA06F108432061072AA4
:1095D0000FDA606B561E06EB86071F2606FA07F1A8
:1095E0008843561E06EB860605FA06F108436063BB
:1095F00022E00D2A0FDA206BD61F06EB86071F2606
:1096000006FA07F18843D61F06EB860605FA06F12F
:109610000843206310E0E06AA2F10D0606EB86071E
:109620001F2606FA07F18843A2F10D0606EB86060F
:1096300005FA06F10843E062F0BD21B1826842F408
:109640008012826003E0826822F480128260704798
:109650000146C86C80B2704766484C30006870475D
:1096600021B1426842F48062426003E0426822F421
:1096700080624260704721B1426842F48052426089
:1096800003E0426822F48052426070470A4600219B
:10969000816821F4E04111438160704721B1826803
:1096A00042F40042826003E0826822F40042826059
:1096B000704721B1826842F40212826003E082683E
:1096C00022F4021282607047014600208A6802F488
:1096D00000120AB1012000E000207047F0B50446F6
:1096E0001546002000220026092911DDE068A1F1BD
:1096F0000A0707EB470C072707FA0CF29043A1F182
:109700000A0707EB470703FA07F21043E0600CE093
:10971000206901EB410C072707FA0CF2904301EB9B
:10972000410703FA07F210432061A06BC0F3015612
:10973000EF1C06F1010CA7EB0C0707EB870C1F27AA
:1097400007FA0CF29043EF1C06F1010CA7EB0C0793
:1097500007EB870701FA07F21043A063F0BD10B5CD
:109760000A4600210023816B21F44011531E41EA77
:109770000351816310BD08B5002300930090009B46
:109780000B440093009B1A6008BD08B502460020F8
:109790000090009201F12800009B1844009000986E
:1097A000006880B208BD0A4600214168164B194086
:1097B0001143416070474162826270470A4600214E
:1097C000416821F01F0111434160704740B10949D0
:1097D0000831096841F40001064A0832116007E0C7
:1097E00004490831096821F40001024A0832116075
:1097F000704700000024014000280140003C014067
:10980000FFFEF0FFFDF7F1FFFFFD3FFF02460020E6
:1098100013680B400BB1012000E000207047CA43E1
:109820000260704770B502460020002300240B122E
:109830005568CEB205EA060415681D4015B10CB195
:10984000012000E0002070BD00220A12D343036013
:109850007047000001684FF6FE7211400160002160
:10986000016041608160C1608D49884208D18C49A6
:109870000839496841F00F01894A083A51608AE085
:1098800087491431884208D185490839496841F02F
:10989000F001834A083A51607DE0814928318842CD
:1098A00008D17F490839496841F470617C4A083A17
:1098B000516070E07A493C31884208D178490839D2
:1098C000496841F47041764A083A516063E074494E
:1098D0005031884208D172490839496841F47021F1
:1098E0006F4A083A516056E06D496431884208D1A8
:1098F0006B490839496841F47001694A083A516076
:1099000049E067497831884208D165490839496892
:1099100041F07061624A083A51603CE06149884216
:1099200006D1011F096841F00F01021F116032E0EA
:109930005C491431884208D15A49091F096841F02D
:10994000F001584A121F116025E05649283188421B
:1099500008D15449091F096841F47061514A121F26
:10996000116018E04F493C31884208D14D49091F28
:10997000096841F470414B4A121F11600BE04949DC
:109980005031884207D14749091F096841F47021C5
:10999000444A121F1160704710B50022026847F652
:1099A000F0739A430C6A8B6823430C6923434C6918
:1099B00023438C692343CC6923434C6A23438C6A39
:1099C00023431A430260CB6843600B6883604B6893
:1099D000C36010BD0021016041608160C160016110
:1099E00041618161C161016241628162704721B15F
:1099F000026842F00102026004E002684FF6FE7362
:109A00001A40026070471AB103680B43036002E01A
:109A100003688B43036070474160704701464868A4
:109A200080B2704701460020002201F080531BB134
:109A30001C4B083B1A6802E0194B083B1A6802EA03
:109A400001030BB1012000E00020704700F08051BD
:109A500019B11449091F086002E01149083948602A
:109A6000704701460020002201F080531BB10D4BCE
:109A7000083B1A6802E00A4B083B1A6802EA010335
:109A80000BB1012000E00020704700F0805119B1B7
:109A90000449091F086002E001490839486070471D
:109AA0000800024008040240002044490860091DE3
:109AB0000860091D0860091D086041483F491431CC
:109AC0000860704700213D498279002A3AD00A4651
:109AD000126803689A430B461A600A1D12680368ED
:109AE0009A430B1D1A60027911440A6803681A43ED
:109AF0000A60324A0832126803689A432F4B0833CF
:109B00001A601A1D126803689A432C4B0C331A60B2
:109B10004279102A0ED11A1F126803681A43274B84
:109B200008331A601A1D126803681A43234B0C335A
:109B30001A600DE02149427911440A6803681A430A
:109B40000A6005E0027911440A6803689A430A60D2
:109B500070470021016001710C2141710021817168
:109B600070471649103109680143144A10321160D8
:109B7000704701460020114A143212680A400AB1A7
:109B8000012000E0002070470C4914310860704744
:109B9000014600200022094B1B6803EA0102074B23
:109BA00014331B680B4013B10AB1012000E0002000
:109BB00070470249143108607047000000040140FA
:109BC000FFFF0F0010B50446CC48844208D10121A4
:109BD000042000F02DFB0021042000F029FB46E0CA
:109BE000C748844208D10121082000F021FB002150
:109BF000082000F01DFB3AE0C248844208D1012150
:109C0000102000F015FB0021102000F011FB2EE0C9
:109C1000BD48844208D10121202000F009FB002129
:109C2000202000F005FB22E0B848844208D1012141
:109C3000402000F0FDFA0021402000F0F9FA16E083
:109C4000B348844208D10121802000F0F1FA0021BC
:109C5000802000F0EDFA0AE0AE48844207D10121ED
:109C6000801500F0E5FA0021A01500F0E1FA10BD22
:109C700010B50121084600F0DBFA0021012000F0B8
:109C8000D7FA10BD2DE9F04102460025002600203C
:109C900000230024002791F803C00CF00F0591F871
:109CA00003C00CF0100CBCF1000F03D091F802C0FF
:109CB0004CEA050591F800C0BCF1000F31D01468E2
:109CC00000202BE04FF0010C0CFA00F3B1F800C0BB
:109CD0000CEA03069E4220D183004FF00F0C0CFAD1
:109CE00003F7BC4305FA03FC4CEA040491F803C0F3
:109CF000BCF1280F06D14FF0010C0CFA00FCC2F8A1
:109D000014C00AE091F803C0BCF1480F05D14FF030
:109D1000010C0CFA00FCC2F810C0401C0828D1D37A
:109D20001460B1F800C0BCF1FF0F34DD54680020AE
:109D30002EE000F1080C4FF0010808FA0CF3B1F81E
:109D400000C00CEA03069E4221D183004FF00F0CA5
:109D50000CFA03F7BC4305FA03FC4CEA040491F83F
:109D600003C0BCF1280F05D100F1080C08FA0CF86B
:109D7000C2F8148091F803C0BCF1480F07D100F17C
:109D8000080C4FF0010808FA0CF8C2F81080401CCB
:109D90000828CED35460BDE8F0814FF6FF710180F2
:109DA000022181700421C17070470246002093682F
:109DB0000B400BB1012000E000207047014688688D
:109DC00080B2704702460020D3680B400BB10120DF
:109DD00000E0002070470146C86880B2704701610A
:109DE0007047416170470AB1016100E0416170470D
:109DF000C16070474FF480320A43826181618261A1
:109E000082698269704702460020434B18684FF60A
:109E10008073184040EA021008433F4B18607047B7
:109E20003E49C8617047F0B50A460023002400216E
:109E3000002500F00046B6F1004F02D1364EF16920
:109E400001E0354E7168C0F3034583B200F440165B
:109E5000B6F5401F08D121F070612F4E766826F0CC
:109E600070662D4F7E6012E000F48016B6F5801FFC
:109E700006D1032606FA05F4A14341F0706106E01D
:109E8000460D360103FA06F6B14341F0706122B186
:109E9000460D360103FA06F6314300F00046B6F1EE
:109EA000004F02D11C4EF16101E01B4E7160F0BD0C
:109EB00030B500228B071C0F0F2303FA04F2164B58
:109EC00008338C1053F824309343134C08348D100E
:109ED00044F8253023468C1053F824308C07240F87
:109EE00000FA04F423430C4C08348D1044F8253058
:109EF00030BD0A49DC3108607047000000080140AD
:109F0000000C014000100140001401400018014005
:109F1000001C0140002001400000014000002042E0
:109F2000DF48006840F00100DD49086008464068ED
:109F3000DC490840DA49486008460068DA490840C8
:109F4000D74908600846006820F480200860084669
:109F5000406820F4FE0048604FF41F00886070479E
:109F6000CF49096821F48031CD4A11601146096852
:109F700021F480211160B0F5803F03D0B0F5802F2F
:109F80000ED106E0C649096841F48031C44A116027
:109F900007E0C349096841F4A021C14A116000E00B
:109FA00000BF00BF704710B501460022002300200B
:109FB0004A11012A02D1BA4C236806E0022A02D1D2
:109FC000B74C236A01E0B64C636A01F01F0201241A
:109FD00094401C400CB1012000E0002010BD38B5B9
:109FE000002000900024002500BF3120FFF7DBFF98
:109FF00005460098401C00900098B0F5A06F01D075
:10A00000002DF2D03120FFF7CEFF08B1012400E08F
:10A010000024204638BD01460020A14A106820F0E7
:10A02000F80040EAC10010607047A049086070471E
:10A03000024600209A4B586820F47C1042EA010343
:10A040001843974B58607047984908667047014617
:10A050000020934A506820F0030008435060704786
:10A060008F48406800F00C007047014600208C4A81
:10A07000506820F0F000084350607047014600200F
:10A08000874A506820F4E0600843506070470146FA
:10A090000020834A506820F4605040EAC1005060BC
:10A0A000704729B17E4A527A02437D4B5A7204E0CE
:10A0B0007B4A527A82437A4B5A7270477B49D83135
:10A0C0000860704701460020754A506820F44040FF
:10A0D0000843506070470021714A20321170704A65
:10A0E00082F82010012802D004280AD104E00121BE
:10A0F0006B4A2032117005E00521694A2032117047
:10A1000000E000BF00BF70476949086070476449BC
:10A11000096A0143624A116270476549443908601F
:10A12000704730B500210022002400235C4D6D688B
:10A1300005F00C0121B1042905D0082923D105E03F
:10A140005C4D056022E05B4D05601FE0544D6D687D
:10A1500005F47012524D6D6805F48034022505EB4C
:10A1600092421CB9544D554305600BE04C4D6D684F
:10A1700005F400351DB1504D5543056002E04D4DCD
:10A180005543056002E04B4D056000BF00BF444DE4
:10A190006D6805F0F0010909484D6B5C0568DD400C
:10A1A00045603F4D6D6805F4E061090A434D6B5C05
:10A1B0004568DD4085603A4D6D6805F46051C90A17
:10A1C0003E4D6B5C4568DD40C560354D6D6805F4FE
:10A1D0004041890B3A4D6B5CC568B5FBF3F50561F1
:10A1E00030BD29B12E4A526902432D4B5A6104E019
:10A1F0002B4A526982432A4B5A61704729B1284A37
:10A2000092690243264B9A6104E0254A926982438F
:10A21000234B9A61704729B1214AD2690243204BEE
:10A22000DA6104E01E4AD26982431D4BDA6170474D
:10A2300029B11B4AD2680243194BDA6004E0184A7C
:10A24000D2688243164BDA60704729B1144A12690A
:10A250000243134B1A6104E0114A12698243104B06
:10A260001A61704712494039086070470F49C86445
:10A2700070470B49C87170470948406A40F08070C8
:10A2800007494862704701460020054A92680A4023
:10A290000AB1012000E00020704701498872704730
:10A2A000001002400000FFF8FFFFF6FE00004242EF
:10A2B0008004424200127A0000093D002C00002078
:10A2C0003C00002010B50446BE48844208D101215C
:10A2D0008014FFF7ADFF0021A014FFF7A9FF16E0DF
:10A2E000B948844208D101210014FFF7AEFF0021D4
:10A2F0002014FFF7AAFF0AE0B448844207D10121E5
:10A30000C013FFF7A2FF0021E013FFF79EFF10BD6F
:10A3100010B50022028802F441520B884C88234376
:10A320008C882343CC8823430C8923434C892343C3
:10A330008C892343CC8923431A430280838B4FF2B9
:10A34000FF74234083830B8A038210BD2DE9F04FF5
:10A3500085B005460C464FF0000902274FF0000873
:10A360004FF0010B0026B246A88B4FF24001084087
:10A37000A88302202884B5F81C90A068022801D187
:10A3800000BF38E0A08810B94FF0010B01E04FF09A
:10A39000020B8D48854200D100E000BF6846FFF700
:10A3A000C0FEDDF800A0E088B0F5007F0AD14FEADA
:10A3B0001A2000EB80004000A168B0FBF1F0401DC6
:10A3C00086B20BE04FEA4B10BAFBF0F000EB8000D6
:10A3D0004000A168B0FBF1F0401D86B20A20B6FB38
:10A3E000F0F606F00108A6EB0800C0F34F074FF6A1
:10A3F000FF7000EA0828022F01DBFF2F02DD022791
:10A400004FF00008E08840EA080038432884A0881C
:10A41000A1890843618808432188084340F400600B
:10A4200040EA0909A5F81C9005B0BDE8F08F0021AD
:10A43000018041808180C180018141818181C18110
:10A440000721018270470021018041808180C18005
:10A450000221816000218181704721B1028842F090
:10A460004002028004E002884FF6BF731A40028067
:10A47000704721B1828B42F48062828304E0828B38
:10A480004FF6FF331A408283704730B50024002313
:10A490000C110125A540ABB21AB185881D438580FA
:10A4A00002E085889D43858030BD1AB183880B43C7
:10A4B000838002E083888B4383807047818170476B
:10A4C0000146888970474FF6FF62914204D00288A6
:10A4D00042F48072028004E002884FF6FF631A4063
:10A4E0000280704721B1828842F00402828004E039
:10A4F00082884FF6FB731A408280704702884FF2C1
:10A50000FF731A40028002880A4302807047018864
:10A5100041F480510180704721B1028842F4005219
:10A52000028004E002884DF6FF731A4002807047F3
:10A5300002460020012901D0108B00E0908A70476C
:10A540000146088A7047B1F5804F04D1028842F471
:10A550008042028004E002884BF6FF731A400280BA
:10A5600070470246002013890B400BB1012000E028
:10A5700000207047CA4302817047F0B502460020B0
:10A5800000240023002501F00F070126BE40B4B2CD
:10A590000B1101269E40B3B2968806EA0305168980
:10A5A000264016B10DB1012000E00020F0BD10B52D
:10A5B000002201F00F040123A3409AB2D343038188
:10A5C00010BD00000030014000380040003C004059
:10A5D00010B50446FE48844208D10121C014FFF79B
:10A5E00027FE0021E014FFF723FEC4E0B4F1804F02
:10A5F00008D101210846FFF728FE00210120FFF7BE
:10A6000024FEB8E0F348844208D101210220FFF77C
:10A610001CFE00210220FFF718FEACE0EE48844249
:10A6200008D101210420FFF710FE00210420FFF7CC
:10A630000CFEA0E0E948844208D101210820FFF780
:10A6400004FE00210820FFF700FE94E0E448844265
:10A6500008D101211020FFF7F8FD00211020FFF79D
:10A66000F4FD88E0DF48844208D101212020FFF773
:10A67000ECFD00212020FFF7E8FD7CE0DA48844271
:10A6800008D101214014FFF7D3FD00216014FFF72A
:10A69000CFFD70E0D548844209D10121C804FFF7FD
:10A6A000C7FD00214FF40020FFF7C2FD63E0D04852
:10A6B000844209D101210805FFF7BAFD00214FF4BA
:10A6C0008010FFF7B5FD56E0CA48844209D1012148
:10A6D0004805FFF7ADFD00214FF40010FFF7A8FD7E
:10A6E00049E0C548844208D101214020FFF7ADFD73
:10A6F00000214020FFF7A9FD3DE0C048844208D179
:10A7000001218020FFF7A1FD00218020FFF79DFDA2
:10A7100031E0BB48844208D101218015FFF795FD47
:10A720000021A015FFF791FD25E0B648844209D12C
:10A7300001210804FFF77CFD00214FF48030FFF772
:10A7400077FD18E0B048844209D101214804FFF7A1
:10A750006FFD00214FF40030FFF76AFD0BE0AB48BE
:10A76000844208D101218804FFF762FD00214FF4E3
:10A770008020FFF75DFD10BD00220288944B9842B7
:10A780000ED0994B98420BD0B0F1804F08D0914B2E
:10A79000984205D0904B984202D0904B984204D1F9
:10A7A0004FF68F731A404B881A438D4B984207D04F
:10A7B0008C4B984204D04FF6FF431A40CB881A4383
:10A7C00002808B8883850B880385814B98420BD050
:10A7D000854B984208D08B4B984205D08A4B9842C3
:10A7E00002D08A4B984201D10B7A038601238382DF
:10A7F000704770B5002400220023058C4FF6FE76CA
:10A8000035400584028C8388048B4FF68F752C406D
:10A81000B51E2C400D882C43751E2A400D892A43F5
:10A820004D882A436A4DA8420BD06F4DA84208D0EC
:10A83000744DA84205D0744DA84202D0734DA84271
:10A8400013D14FF6F7752A404D892A434FF6FB7511
:10A850002A408D882A434FF6FF652B404FF6FF555F
:10A860002B408D892B43CD892B4383800483CD8856
:10A870008586028470BD70B5002400220023058CFB
:10A880004FF6EF7635400584028C8388048B48F6BA
:10A89000FF752C404FF6FF452C400D884FF6FF7694
:10A8A00006EA05252C434FF6DF752A400D8906EA96
:10A8B00005152A434D8806EA05152A43444DA8424A
:10A8C00002D0494DA8421DD14FF67F752A404D89CF
:10A8D0004FF6FF7606EA05152A434FF6BF752A4064
:10A8E0008D8806EA05152A434FF6FF352B404FF2B7
:10A8F000FF752B408D8906EA85052B43CD8906EA35
:10A9000085052B4383800483CD880587028470BD31
:10A9100070B5002400220023058C4FF6FF663540F9
:10A920000584028C8388848B4FF68F752C404FF6FC
:10A93000FC752C400D882C434FF6FF552A400D899D
:10A940004FF6FF7606EA05252A434D8806EA0525D7
:10A950002A431F4DA84202D0234DA8421DD14FF2D9
:10A96000FF752A404D894FF6FF7606EA05252A43F2
:10A970004FF6FF352A408D8806EA05252A434EF614
:10A98000FF752B404DF6FF752B408D8906EA0515A6
:10A990002B43CD8906EA05152B4383808483CD881C
:10A9A0008587028470BD70B5002200230024058CC9
:10A9B0004EF6FF7635400584038C8488828B48F6FA
:10A9C000FF752A404FF6FF452A400D8820E0000021
:10A9D000002C01400004004000080040000C004032
:10A9E000001000400014004000340140004C0140C1
:10A9F000005001400054014000180040001C00407D
:10AA00000020004000400140004401400048014057
:10AA10004FF6FF7606EA05252A434DF6FF752B40D3
:10AA20000D8906EA05352B434D8806EA05352B438B
:10AA3000FA4DA84202D0FA4DA84208D14BF6FF7554
:10AA40002C408D894FF6FF7606EA85152C438480CD
:10AA50008283CD88A0F84050038470BD828B4FF272
:10AA6000FF331A408283828B4FF6FF7303EA012380
:10AA70001A4382837047F0B50C4615460022002128
:10AA80000026078C4EF6FF7C07EA0C070784828BB2
:10AA9000018C4FF6FF7707EA043640F6FF473A404D
:10AAA0004FF6FF7707EA05273A434FF6FF7707EAA5
:10AAB00003373A43D94FB8420ED0D94FB8420BD0E2
:10AAC000B0F1804F08D0D74FB84205D0D64FB8422A
:10AAD00002D0D64FB84206D14DF6FF77394046F442
:10AAE0008057394305E047F6FF57394044F4805713
:10AAF000394382830184F0BD828B4FF6F3731A4091
:10AB00008283828B0A4382837047F0B50C461546D8
:10AB1000002200210026078C4FF6FF6C07EA0C0785
:10AB20000784828B018C4FF6FF7707EA04264FF6E5
:10AB30000C773A404FF6FF7707EA03172F433A4363
:10AB4000B64FB8420ED0B64FB8420BD0B0F1804FDE
:10AB500008D0B44FB84205D0B34FB84202D0B34F7B
:10AB6000B84206D14FF6FF57394046F48077394353
:10AB700005E04FF2FF57394044F480773943828330
:10AB80000184F0BD028B4FF2FF331A400283028B27
:10AB90004FF6FF7303EA01231A4302837047F0B5AF
:10ABA0000C461546002200210026078C4FF6EF7C4C
:10ABB00007EA0C070784028B018C4FF6FF7707EA40
:10ABC000041640F6FF473A404FF6FF7707EA03378F
:10ABD0003A434FF6FF7707EA05273A438F4FB842CB
:10ABE0000ED08F4FB8420BD0B0F1804F08D08D4FB0
:10ABF000B84205D08C4FB84202D08C4FB84206D133
:10AC00004FF6DF77394046F01007394305E04FF63D
:10AC10005F77394044F01007394302830184F0BD67
:10AC2000028B4FF6F3731A400283028B0A430283AE
:10AC30007047F0B50C46154600220021068C4FF6F1
:10AC4000FE773E400684028B018C4FF60C76324034
:10AC50007E1C06EA03162E433243704EB0420ED0DD
:10AC60006F4EB0420BD0B0F1804F08D06D4EB04265
:10AC700005D06D4EB04202D06C4EB04206D14FF6B8
:10AC8000FD76314044F00106314305E04FF6F5769C
:10AC9000314044F00106314302830184F0BD70B5B8
:10ACA00005460C465D4885420ED05D4885420BD076
:10ACB000B5F1804F08D05B48854205D05A4885429F
:10ACC00002D05A48854200D100E000BF208850B928
:10ACD0002389A28861882846FFF7ABFFE1882846D0
:10ACE000FFF79EFF25E0208804280AD12389A28847
:10ACF00061882846FFF753FFE1882846FFF742FFA7
:10AD000017E0208808280AD12389A288618828466C
:10AD1000FFF7FBFEE1882846FFF7EEFE09E02389F6
:10AD2000A28861882846FFF7A6FEE1882846FFF73B
:10AD300095FE70BD2DE9F04105460C460026012721
:10AD4000608808B9022600E00026A088012801D109
:10AD5000022700E001272088A0B92389A288618802
:10AD60002846FFF766FFE1882846FFF759FF238949
:10AD70003A4631462846FFF712FFE1882846FFF79A
:10AD800001FF13E02389A28861882846FFF707FFA7
:10AD9000E1882846FFF7F6FE23893A4631462846E1
:10ADA000FFF747FFE1882846FFF73AFFBDE8F0814B
:10ADB0000A884B881A438B881A43CB881A430B891D
:10ADC0001A434B891A438B891A43A0F844207047D1
:10ADD0004FF6FF71818000210180C18041800172A6
:10ADE00070470021018041808180C18001814181C3
:10ADF0008181C181704700210180418001218180D2
:10AE00000021C18001817047002101804180818043
:10AE1000C18001814181818170470000002C014087
:10AE2000003401400004004000080040000C0040D5
:10AE300021B1028842F00102028004E002884FF64C
:10AE4000FE731A400280704731B1B0F8442042F4DA
:10AE50000042A0F8442005E0B0F84420C2F30E02FE
:10AE6000A0F8442070471AB183890B43838102E024
:10AE700083898B43838170478182704741EA020353
:10AE8000A0F8483070471AB183890B43838102E0F0
:10AE900083898B438381704701894FF6F872114093
:10AEA000018170470A46002101894FF68F731940CE
:10AEB00011430181704730B504460D4629462046AE
:10AEC000FFF7F0FF208940F00700208130BD2DE919
:10AED000F04104460D4616461F46602D06D13B46FE
:10AEE000012231462046FFF75AFE05E03B4601228B
:10AEF00031462046FFF79DFE29462046FFF7D2FF48
:10AF0000208940F007002081BDE8F08130B50C4673
:10AF100000210189C9B24FF6FF7505EA03251543E3
:10AF200025432943018130BD2DE9F04105460E46F8
:10AF300017469846002443463A4631462846FFF7CE
:10AF4000E5FF2C894FF6F870044044F007044FF6F3
:10AF50008F70044044F070042C81BDE8F081F0B59E
:10AF600004460D4616461F463B46324629462046B5
:10AF7000FFF7CCFF208940F480402081F0BD01859F
:10AF8000828270470A46002101884FF68F7319406C
:10AF9000114301807047F0B50C4615461E4600214E
:10AFA000002200230189028B038C4FF6F877394089
:10AFB00021434FF6FC473A4040F201173A434FF61F
:10AFC000DD773B404FF6FF7707EA06172F433B43F9
:10AFD000018102830384F0BD0A460021018B4FF6F4
:10AFE0008F7319401143018370470A460021018B7A
:10AFF00048F6FF7319404FF6FF7303EA0223194323
:10B00000018370470A460021818B4FF68F731940E8
:10B010001143818370470A460021818B48F6FF73F4
:10B0200019404FF6FF7303EA0223194381837047E7
:10B0300021B1028842F08002028004E002884FF6CB
:10B040007F731A400280704721B1828842F0040267
:10B05000828004E082884FF6FB731A40828070473A
:10B0600021B1828842F00802828004E082884FF693
:10B07000F7731A408280704721B1828842F0010242
:10B08000828004E082884FF6FE731A408280704707
:10B090000A460021018B4FF6F773194011430183D3
:10B0A00070470A460021018B4FF2FF7319404FF69B
:10B0B000FF7303EA02231943018370470A46002104
:10B0C000818B4FF6F77319401143818370470A460D
:10B0D0000021818B4FF2FF7319404FF6FF7303EA93
:10B0E00002231943818370470A460021018B4FF6E2
:10B0F000FB7319401143018370470A460021018BFD
:10B100004FF6FF3319404FF6FF7303EA022319434A
:10B11000018370470A460021818B4FF6FB7319406B
:10B120001143818370470A460021818B4FF6FF331C
:10B1300019404FF6FF7303EA0223194381837047D6
:10B140000A460021018B4FF67F731940114301839A
:10B1500070470A460021018BC1F30E014FF6FF73C1
:10B1600003EA02231943018370470A460021818BB9
:10B170004FF67F7319401143818370470A460021BF
:10B18000818BC1F30E014FF6FF7303EA02231943CB
:10B19000818370470A460021018C4FF6FD731940E8
:10B1A0001143018470470A460021018C4FF6F77362
:10B1B00019401143018470470A460021018C4FF663
:10B1C000DF7319404FF6FF7303EA0213194301843A
:10B1D00070470A460021018C4FF67F7319404FF6E5
:10B1E000FF7303EA02131943018470470A460021E2
:10B1F000018C4FF6FF5319404FF6FF7303EA022309
:10B200001943018470470A460021018C4FF2FF73F5
:10B2100019404FF6FF7303EA022319430184704774
:10B220000A460021018C4DF6FF7319404FF6FF735B
:10B2300003EA023319430184704730B50023012427
:10B240008C40A3B2048C9C430484048C02FA01F564
:10B25000ADB22C43048430BD30B5002304248C40AF
:10B26000A3B2048C9C430484048C02FA01F5ADB2B1
:10B270002C43048430BD70B50346002000241846DA
:10B28000183001258D40ACB21D8CA5431D8409B139
:10B29000082909D100EB6100056825F070050560FB
:10B2A0000568154305600EE00D1FC5F34E052844E3
:10B2B000056825F4E045056005684FF6FF7606EA67
:10B2C00002263543056070BD21B1028842F00202BA
:10B2D000028004E002884FF6FD731A400280704736
:10B2E00021B1028842F00402028004E002884FF695
:10B2F000FB731A400280704721B1828842F08002BD
:10B30000828004E082884FF67F731A408280704703
:10B3100002884FF6F7731A40028002880A430280BF
:10B32000704782884FF68F731A40828082880A4362
:10B330008280704702894FF6F8731A4002810289B1
:10B340000A430281704702894FF67F731A400281D7
:10B3500002890A4302817047818470478185704762
:10B36000818670470187704781877047A0F8401039
:10B37000704702884FF6FF431A40028002880A4352
:10B38000028070470146888E70470146088F7047DB
:10B390000146888F70470146B1F84000704701466A
:10B3A000888C70470146088D704702460020138A3A
:10B3B0000B400BB1012000E000207047CA4302821D
:10B3C000704730B50246002000230024158A05EAA4
:10B3D0000103958905EA010413B10CB1012000E0D5
:10B3E000002030BDCA4302827047000010B50446F9
:10B3F000FB48844209D101218803FEF719FF00218F
:10B400004FF48040FEF714FF32E0F648844209D141
:10B4100001214804FEF719FF00214FF40030FEF728
:10B4200014FF25E0F048844209D101218804FEF789
:10B430000CFF00214FF48020FEF707FF18E0EB48D7
:10B44000844209D10121C804FEF7FFFE00214FF418
:10B450000020FEF7FAFE0BE0E548844208D1012106
:10B460000805FEF7F2FE00214FF48010FEF7EDFE16
:10B4700010BD2DE9F04786B005460E460024A246D1
:10B4800000BFA1460027B08900B100BF2F462C8A1B
:10B490004CF6FF700440F08804432C82AC894EF6D1
:10B4A000F3100440B088318908437189084304438C
:10B4B000AC81AC8A4FF6FF400440B0890443AC82B3
:10B4C00001A8FEF72EFEC648874202D1DDF810A083
:10B4D00001E0DDF80CA0A88900F4004040B10AEBBF
:10B4E000CA0000EB0A1031684900B0FBF1F807E030
:10B4F0000AEBCA0000EB0A1031688900B0FBF1F8D2
:10B500006420B8FBF0F004012009642101FB1089DC
:10B51000A88900F4004040B1322000EBC900B0FB24
:10B52000F1F000F00700044308E0322000EB0910BE
:10B530006421B0FBF1F000F00F0004432C8106B051
:10B54000BDE8F0874FF41651016000218180C18071
:10B5500001810C21418100218181704710B5024693
:10B560000020108A4FF2FF0318400B884C882343B9
:10B570008C882343CC8823431843108210BD0021BC
:10B58000018041808180C180704721B1828942F46D
:10B590000052828104E082894DF6FF731A40828155
:10B5A0007047F0B50346002400260025002040F631
:10B5B0006A17B94200D100BF1846C1F3421401F026
:10B5C0001F06012707FA06F5012C01D10C3004E013
:10B5D000022C01D1103000E014301AB107682F435B
:10B5E000076002E00768AF430760F0BD1AB1838AC5
:10B5F0000B43838202E0838A8B4383827047028AF3
:10B600004FF6F0731A400282028A0A4302827047A0
:10B6100082894FF2FF731A40828182890A438281B4
:10B62000704721B1828942F00202828104E082895E
:10B630004FF6FD731A4082817047028A4FF6DF731E
:10B640001A400282028A0A430282704721B1028AAA
:10B6500042F48042028204E0028A4BF6FF731A40F1
:10B6600002827047C1F308028280704701468888D1
:10B67000C0F308007047818941F001018181704762
:10B68000028BD2B20283028B42EA0122028370470C
:10B69000028B02F47F420283028B0A4302837047CB
:10B6A00021B1828A42F02002828204E0828A4FF62F
:10B6B000DF731A408282704721B1828A42F0100201
:10B6C000828204E0828A4FF6EF731A4082827047CA
:10B6D00021B1828A42F00802828204E0828A4FF617
:10B6E000F7731A408282704721B1828942F4004286
:10B6F000828103E08289C2F30E028281704721B108
:10B70000828A42F40062828204E0828A4FF2FF73EE
:10B710001A4082827047828A4FF6FB731A408282F7
:10B72000828A0A438282704721B1828A42F00202F1
:10B73000828204E0828A4FF6FD731A40828270474B
:10B7400002460020B1F5007F00D100BF13880B40F6
:10B750000BB1012000E00020704701F40072B2F547
:10B76000007F00D100BFCA430280704770B5024617
:10B77000002400230025002040F66A16B14200D1C3
:10B7800000BFC1F3421501F01F03012606FA03F3BF
:10B79000012D02D19689334006E0022D02D1168A8E
:10B7A000334001E0968A33400C12012606FA04F475
:10B7B0001688344013B10CB1012000E0002070BDA8
:10B7C00010B50022002340F66A14A14200D100BF48
:10B7D0000A1201249440A3B2DC43048010BD00008F
:10B7E000003801400044004000480040004C004048
:10B7F000005000400948804709480047FEE7FEE73F
:10B80000FEE7FEE7FEE7FEE7FEE7FEE7FEE7FEE710
:10B8100004480549054A064B704700002792000876
:10B8200031810008F8D30020F8DF0020F8D700208D
:10B83000F8D7002008B501212020FEF7DFFC40F6F4
:10B840000170ADF8000010208DF8030003208DF882
:10B8500002006946B548FEF715FA40F60171B34893
:10B86000FEF7BFFA01210420FEF7C8FC0121B04811
:10B87000FEF7D9FA4FF47840ADF8000010208DF8AB
:10B88000030003208DF802006946AA48FEF7FAF982
:10B890004FF47841A748FEF7A4FA01210820FEF7EB
:10B8A000ADFC0120ADF8000010208DF8030003204E
:10B8B0008DF802006946A048FEF7E4F901219E4890
:10B8C000FEF78FFA08BD9D480068C0439C49C1F847
:10B8D000800170479948001D0068C0439849C1F82D
:10B8E00084010846D0F88801C043C1F88801954812
:10B8F000D0F8A001C0439349C1F8A0010846D0F890
:10B90000A401C043C1F8A4010846D0F8A801C0436F
:10B91000C1F8A8010846D0F8AC01C043C1F8AC0199
:10B920000846D0F8B001C043C1F8B001704708B56F
:10B9300001212020FEF762FC0620ADF80000102057
:10B940008DF8030003208DF8020069467748FEF762
:10B9500099F906217548FEF744FA01211020FEF7F7
:10B960004DFC4FF4F850ADF8000010208DF80300A6
:10B9700003208DF8020069467348FEF783F94FF4FF
:10B98000F8517148FEF72DFA08BD0024FFF752FF69
:10B990000BF087FAFFF7CBFF02206C490870487064
:10B9A000642003F02AFC00BF0C2C02DA601CC4B235
:10B9B00006E0002461480068C0436149C1F8800185
:10B9C00062480078022806D10120604908700020F2
:10B9D0005F49086009E05D480078012805D1002032
:10B9E0005A49087001205A4908605848407802288E
:10B9F00006D101205549487000205649086009E0E9
:10BA000052484078012805D1002050494870012053
:10BA1000504908605048008840B100204749203113
:10BA2000086001204649C1F8BC0107E001204349F4
:10BA30002031086000204249C1F8BC0146484088D6
:10BA400040B100203D492831086001203C49C1F83F
:10BA5000B80107E001203949283108600020384941
:10BA6000C1F8B8013C48808840B1002033492431F6
:10BA7000086001203249C1F8B40107E001202F49D4
:10BA80002431086000202E49C1F8B4013248C08832
:10BA900040B1002029492C31086001202849C1F813
:10BAA000B00107E0012025492C310860002024491D
:10BAB000C1F8B001294890F82D0020B10020244998
:10BAC000091F086003E001202149091F086023487D
:10BAD00090F85B0020B100201D490839086003E0A0
:10BAE00001201B49083908601C4890F8890020B1E2
:10BAF000002017490C39086003E0012014490C3973
:10BB00000860164890F8B70020B10020104910399D
:10BB1000086003E001200E49103908600BF052F96B
:10BB2000FFF7D8FE282002F079FE3DE7001401401F
:10BB30000004300000080140000C014080812242D6
:10BB40000080224200002242001001402401002017
:10BB5000BC0121428081214238010020B47B0020B9
:10BB600008B501214020FEF749FB4FF46040ADF8D5
:10BB7000000010208DF8030003208DF802006946B4
:10BB80009448FEF77FF8BDF800109248FEF727F9B9
:10BB900008BD10B58F48001D006820F070608D4909
:10BBA000091D08600846006840F0407008600120E8
:10BBB000894908608949C1F8BC01042003F0F2FA00
:10BBC000002085490860042003F0ECFA0020834936
:10BBD000C1F8BC0110BD10B57E48001D006820F002
:10BBE00070607C49091D08600846006840F040709C
:10BBF000086000207849091D08607849C1F8B8013B
:10BC0000042003F0CFFA01207349091D086073492D
:10BC1000C1F8B801042003F0C5FA10BD10B5002426
:10BC20006C48001D006820F070606A49091D0860BA
:10BC30000846006840F0006008600120664908601E
:10BC400003F0B0FA01206549C1F8BC0103F0AAFA7B
:10BC500007E0601CC4B2FA2C03DDFFF7BCFF012033
:10BC600010BD5D48803800680028F2D15A49091D8E
:10BC7000086000BFF4E710B500205749091D0860AF
:10BC80005448001D006820F070605249091D08608A
:10BC90000846006840F04070086000204F49C1F835
:10BCA000B801022003F07EFA01204B49091D08600B
:10BCB000022003F077FA00204849C1F8BC0110BD0A
:10BCC00010B500204449091D08604248001D006865
:10BCD00020F070603F49091D08600846006840F088
:10BCE0004070086001203D49C1F8B801022003F00E
:10BCF00059FA01203849091D0860022003F052FA60
:10BD000000203649C1F8BC0110BD70B50446314869
:10BD1000001D006820F070602E49091D086008466B
:10BD2000006840F04070086000202B49091D086041
:10BD3000002517E0E009284908606006040E02208B
:10BD400003F030FA01202549C1F8BC01022003F0BC
:10BD500029FA00202049091D0860022003F022FA78
:10BD6000681CC5B2082DE5DB70BD70B50546002422
:10BD70001848001D006820F070601649091D086011
:10BD80000846006840F000600860002617E00020C8
:10BD90001149091D0860022003F004FA01200F492F
:10BDA000C1F8BC016006040E0B488038006808B179
:10BDB000601CC4B2012003F0F5F9701CC6B2082E55
:10BDC000E5DB15B9FFF77CFF01E0FFF754FF2046E4
:10BDD00070BD000000180140B8012342000023425A
:10BDE00010B5FFF7BDFE10BD70B504460026FFF785
:10BDF000D0FE2546E11704EB11610912A02202EBE7
:10BE00004101C8B2FFF781FFFFF708FFE11704EB1C
:10BE100011610912A4EB0121C8B2FFF776FFFFF709
:10BE2000FDFEFFF7B6FEA120FFF76FFFFFF7F6FE5E
:10BE30000020FFF79AFF0646FFF7CDFE304670BDA3
:10BE400070B504460E46002049490860012003F001
:10BE5000D4F9FFF79EFE2546E11704EB11610912A4
:10BE6000A02202EB4101C8B2FFF74FFFFFF7D6FE59
:10BE7000E11704EB11610912A4EB0121C8B2FFF72D
:10BE800044FFFFF7CBFE3046FFF73FFFFFF7C6FE4C
:10BE9000FFF7A1FE01203749C1F8B401022003F0E9
:10BEA000ACF970BD2DE9F04105460E461746002459
:10BEB00009E0E20026FA02F2D1B22A1990B2FFF7A5
:10BEC000BFFF601CC4B2BC42F3DBBDE8F0812DE9CA
:10BED000F04107460C460026002509E036023919D4
:10BEE000491B491E88B2FFF77FFF0644681CC5B294
:10BEF000A542F3DB3046BDE8F08110B5FF20FFF727
:10BF000073FF0446552C01D1002010BD5521FF20A0
:10BF1000FFF796FFFF20FFF767FF0446552C01D17E
:10BF20000020F2E70120F0E770B506460C46154602
:10BF300008E03046721C96B2FFF756FF04F8010B7A
:10BF4000681E85B2002DF4D170BD70B505460C4653
:10BF5000164606E021782846FFF772FF681C85B276
:10BF6000641C3000A6F101018EB2F3D170BD000057
:10BF7000B40123420000234270B50546002406E0C8
:10BF8000601C84B2B4F5803F01DB002070BD02214B
:10BF90007B48FEF7E6FA0028F2D029467848FEF7FB
:10BFA0008DFA06E0601C84B2B4F5803F01DB00200E
:10BFB000ECE701217248FEF7D4FA0028F2D070486D
:10BFC000FEF77EFAC0B2E1E710B504466C4800887F
:10BFD0004FF6C77108406A49088008460088204328
:10BFE000088001216648FEF738FA10BD00B587B019
:10BFF000012141F20400FEF701F900210120FDF7C3
:10C0000012FFE020ADF8180018208DF81B00032067
:10C010008DF81A0006A95B48FDF734FEBDF818102C
:10C020005848FDF7DEFE0020ADF804004FF48270A2
:10C03000ADF806000020ADF80800ADF80A000120B8
:10C04000ADF80C004002ADF80E003820ADF810003D
:10C050000020ADF812000720ADF8140001A94848EF
:10C06000FEF756F901214648FEF7F7F92820FFF7B9
:10C07000ABFFFF20FFF780FF07B000BD70B505469E
:10C08000002406E0601C84B2B4F5803F01DB002090
:10C0900070BD02213C48FEF764FA0028F2D0294620
:10C0A0003948FEF70BFA06E0601C84B2B4F5803F15
:10C0B00001DB0020ECE701213348FEF752FA0028AB
:10C0C000F2D03148FEF7FCF9C0B2E1E700B587B025
:10C0D00001210820FEF792F801218803FEF79BF862
:10C0E0004FF46040ADF8180018208DF81B000320B5
:10C0F0008DF81A0006A92548FDF7C4FD4FF46041EC
:10C100002248FDF76CFE0020ADF804004FF4827069
:10C11000ADF806000020ADF80800ADF80A00ADF853
:10C120000C004FF40070ADF80E001020ADF81000B8
:10C130000020ADF812000720ADF8140001A9124844
:10C14000FEF7E6F801211048FEF787F9322003F0E8
:10C1500054F8FF20FFF792FF07B000BD10B504466A
:10C16000094800884FF6C77108400749088008460B
:10C1700000882043088001210348FEF76EF910BDB6
:10C18000003001400008014000380040000C014030
:10C1900085488649486086484860704783480069FA
:10C1A00040F080008149086170478048C16801F013
:10C1B000010008B10120704701F0040008B102201D
:10C1C000F9E701F0100008B10320F4E70020F2E7DE
:10C1D00070B5044600BFFFF7E8FF0546012D00D00B
:10C1E00006E0012002F0DEFF601E84B2002CF2D1D6
:10C1F00000BF04B9FF25284670BD70B50546002470
:10C2000045F6FF70FFF7E4FF0446C4B967480069CC
:10C2100040F002006549086108464561006940F048
:10C220004000086145F6FF70FFF7D2FF0446012C7D
:10C2300005D05E48006920F002005C490861204694
:10C2400070BD70B505460E46FF20FFF7C1FF0446DE
:10C2500094B95648006940F00100544908612E80A5
:10C26000FF20FFF7B5FF0446012C05D04F480069B9
:10C2700020F001004D490861204670BD0146088844
:10C280007047014601F0010010B90888C0B270473C
:10C2900031F8010C000AFAE72DE9F04105460E4697
:10C2A0001746002407E036F814102846FFF7C9FFA8
:10C2B000AD1C601C84B2BC42F5DBBDE8F08130B53A
:10C2C00003460C461546002207E01846FFF7D6FF46
:10C2D00024F812009B1C501C82B2AA42F5DB30BD30
:10C2E00030B503460C461546002206E01846FFF717
:10C2F000C8FFA0545B1C501C82B2AA42F6DB30BDC2
:10C3000070472DE9F84F044689469246002500946F
:10C31000C8464FF4806002F0B1FD06460EB9BDE894
:10C32000F88FB4F1006F02D32248844200D3F6E7BD
:10C3300000271FE098F801004FEA002B98F8000052
:10C3400058441FFA80FB08F102082846691C8DB288
:10C3500026F810B0B5F5806F0AD100254FF4806241
:10C3600031460098FFF798FF009800F500600090B4
:10C37000B81C87B25745DDD325B12A46314600980F
:10C38000FFF78AFF304602F0DAFD00BFC7E710B5BD
:10C3900004466068084908602068FBF75DFF0648AE
:10C3A0000068804710BD000023016745002002405F
:10C3B000AB89EFCD000008084000002010B5002434
:10C3C000FBF786FF01214448FEF7EFFF01214248B9
:10C3D000FEF7F4FFFBF783FF10BD7FB505460C4663
:10C3E00001210220FDF717FFADF80850ADF8044019
:10C3F0000020ADF80A00ADF8060001A93648FEF7A6
:10C40000BBF91D208DF8000000208DF801000220EE
:10C410008DF8020001208DF803006846FCF789FFC3
:10C42000002201212C48FEF71EFD00212A48FEF7BC
:10C43000FFFC7FBD10B50024FBF74AFF0121274810
:10C44000FEF7B3FF012804D125480068401C2449A9
:10C45000086024480088B0F57A7F05DA2148008812
:10C46000401C2049088002E000201E49088001216C
:10C470001A48FEF7A3FFFBF732FF10BD7FB5054654
:10C480000C4601211020FDF7C6FEADF80850ADF8AE
:10C4900004400020ADF80A00ADF8060001A90F48DD
:10C4A000FEF76AF936208DF8000001208DF80100B2
:10C4B00003208DF8020001208DF803006846FCF788
:10C4C00038FF012211460548FEF7CDFC0121034843
:10C4D000FEF7AEFC7FBD00000004004000100040ED
:10C4E00044000020B401002010B504462046FFF7A8
:10C4F00035FE10BD10B504462046FFF7BFFD10BD48
:10C5000008B501210820FDF779FE4FF4A050ADF8E1
:10C51000000010208DF8030003208DF8020069460A
:10C52000FE48FDF7AFFB4FF40060ADF80000482077
:10C530008DF8030003208DF802006946F748FDF7E7
:10C54000A1FB40F2CF216420FFF798FF0020F449BF
:10C5500008600A2002F051FE0120F249C1F8A8014A
:10C560000A2002F04AFE0020ED4908600A2002F08D
:10C5700044FE0120EB49C1F8A8010A2002F03DFE6B
:10C580000020E74908600A2002F037FE0120E54953
:10C59000C1F8A8010A2002F030FE0020E149C1F8EC
:10C5A000A8010A2002F029FE0120DE49C1F8A801F5
:10C5B0000A2002F022FE0020DA49C1F8A8010A2070
:10C5C00002F01BFE0120D749C1F8A8010A2002F0A1
:10C5D00014FE08BD70B505460C4600260020D04963
:10C5E0000831086004F01F0040EA05063046FFF7F6
:10C5F00081FFFF20FFF77EFF064604F0800018B1A0
:10C60000FF20FFF777FF06460120C5490831086083
:10C61000304670BD2DE9F04104460D461646002710
:10C620000020BF490831086005F01F0040EA0407F8
:10C630003846FFF75FFF3046FFF75CFF0120B9493E
:10C64000C1F8B001BDE8F08170B505460C46002088
:10C65000B349083108603A20FFF74CFF05E06D1E32
:10C660000020FFF747FF2070641C002DF7D1002049
:10C6700020700120AA490831086070BD70B50446D9
:10C680000D460020A649083108607A20FFF732FFE6
:10C6900004E0641E2878FFF72DFF6D1C002CF8D1F4
:10C6A00001209F490831086070BD10B5044604F0B0
:10C6B00060009D49097888420ED003221F21A020E6
:10C6C000FFF7A8FFC4F341121F218020FFF7A2FF4C
:10C6D00004F060009449087010BD10B5044620466F
:10C6E000FFF7E3FF21460020FFF774FF10BD70B590
:10C6F00004460D462046FFF7D8FF2A462146402033
:10C70000FFF788FF70BD70B505460C460026294628
:10C71000D420FFF7ECFFE1B2D620FFF7E8FFC4F327
:10C720000721D720FFF7E3FF01E0701C86B2EA2063
:10C73000FFF7D3FF00F0010018B140F6FF7086420A
:10C74000F3DB70BD70B504460025FFF7D9FE09E0A4
:10C75000FF2200211046FFF75DFF681C85B20A200A
:10C7600002F04BFD1D20FFF7B8FF00F0010010B9EB
:10C77000B5F5FA7FECDBB5F5FA7F04DB6BA013F0BF
:10C78000D3FB012070BD0020704908600021082003
:10C79000FFF7ADFF00210920FFF7A9FF00210C20C2
:10C7A000FFF7A5FF00210D20FFF7A1FF10210A20B0
:10C7B000FFF79DFF1A210B20FFF799FF112104209D
:10C7C000FFF795FF1A210520FFF791FFFF210620B3
:10C7D000FFF78DFF1F210720FFF789FFA1213820D8
:10C7E000FFF785FF3F212820FFF781FF3021292017
:10C7F000FFF77DFFF9213020FFF779FFF721312086
:10C80000FFF775FF0D21C020FFF771FF0021C12048
:10C81000FFF76DFF3322C2218020FFF7FBFE1221BC
:10C82000C620FFF764FF0C21C720FFF760FF15212A
:10C83000C420FFF75CFFEE21CA20FFF758FF052157
:10C84000CB20FFF754FF2178E420FFF750FF6178F9
:10C85000E520FFF74CFFA178E220FFF748FFE178E1
:10C86000E320FFF744FF2179E020FFF740FF6179E3
:10C87000E120FFF73CFF4FF480710020FFF743FFFA
:10C880004FF480711020FFF73EFF1F20FFF70DFFD0
:10C89000C0221B218020FFF7BDFE04221F21802023
:10C8A000FFF7B8FEE420FFF718FF2178884201D196
:10C8B000002067E7012065E710B57220FFF70DFF44
:10C8C00010BD70B504460D4611210220FFF70FFF81
:10C8D0001A210320FFF70BFF11202044C1B20620CC
:10C8E000FFF705FF41F611202044C0F30721072080
:10C8F000FFF7FDFE002211467A20FFF78BFE294646
:10C900002046FFF7BBFE08221F218020FFF782FE92
:10C910001C20FFF7E2FE00F0020019E0000C0140CD
:10C92000A88121420080214248000020454E433228
:10C93000384A363020696E6974696C69736520669F
:10C9400061696C65642E2E2E0A0000004C000020E8
:10C9500020B108221F21A020FFF75CFE70BD2DE949
:10C96000F04105460F463920FFF7B7FE10B9002009
:10C97000BDE8F081294801780020FFF7B8FE27487C
:10C980000088C0F307210120FFF7B1FE00213A2003
:10C99000FFF720FE2149086000213A20FFF71AFE28
:10C9A0001E49096841EA00201C49086000213A201C
:10C9B000FFF710FE044600213A20FFF70BFE44EA81
:10C9C0000024241F00213A20FFF704FE0646002120
:10C9D0003A20FFF7FFFD46EA0026681EA04200D27B
:10C9E0006C1E06F0800008B9002403E0394620469A
:10C9F000FFF72AFE094801780C20FFF778FE074868
:10CA00000088C0F307210D20FFF771FE40221E2190
:10CA10008020FFF7FFFD2046AAE700004C00002021
:10CA200010B9FA4A11600AE0012803D1F74A10321E
:10CA3000116004E0022802D1F44A203211607047EC
:10CA400010B9F34A11600AE0012803D1F04A121F1D
:10CA5000116004E0022802D1ED4A083A11607047E3
:10CA600008B501210420FDF7C9FB1C20ADF800002A
:10CA700010208DF8030003208DF802006946E54878
:10CA8000FDF700F9BDF80010E248FDF7A8F9012113
:10CA90004020FDF7B3FB03208DF8020040F2111097
:10CAA000ADF8000010208DF803006946DA48FDF764
:10CAB000E9F8BDF80010D848FDF791F940F6EE60AE
:10CAC000ADF8000048208DF803006946D248FDF714
:10CAD000D9F8BDF80010D048FDF781F908BD0EB5B2
:10CAE00001210420FDF7E4F90220019000208DF8D7
:10CAF00008000C208DF8090001208DF80A0001A81B
:10CB0000FCF7E0FF01208DF801008DF802008DF8A0
:10CB1000030007208DF800006846FCF70AFC03219B
:10CB20000420FDF7C5F90820019000208DF80800C9
:10CB30000C208DF8090001208DF80A0001A8FCF7EF
:10CB4000C1FF01208DF8010002208DF802000120B4
:10CB50008DF8030009208DF800006846FCF7E9FB1A
:10CB60000EBD2DE9F04105460E46174645F0800002
:10CB7000FFF702FA002404E0305DFFF7FDF9601CC6
:10CB8000C4B2BC42F8DBBDE8F0812DE9F0410746B4
:10CB90000D4616463846FFF7EFF9002405E0FE2063
:10CBA000FFF7EAF92855601CC4B2B442F7DBBDE8D0
:10CBB000F08110B5044604EB0410C0EBC410974993
:10CBC0000844808C00129649087004EB0410C0EBF6
:10CBD000C4109249084490F82400914948700021FB
:10CBE0002046FFF72DFF02228D490A20FFF7B9FFEB
:10CBF00001212046FFF724FF10BD10B50446002197
:10CC00002046FFF71DFF022286490A20FFF7BDFFDD
:10CC100001212046FFF714FF8248407881490978B6
:10CC200040EA012004EB0411C1EBC4117B4A11441A
:10CC3000888410BD10B504467848008C00127849ED
:10CC40000870764890F82000487000212046FFF7D1
:10CC5000F7FE022272490920FFF797FF01212046C3
:10CC6000FFF7EEFE10BD10B5FFF7FAFEFFF7BEF9B5
:10CC700000210846FFF7D4FE00210120FFF7D0FE77
:10CC800000210220FFF7CCFE0A2002F0B6FA0121B3
:10CC90000020FFF7C5FE01210846FFF7C1FE012174
:10CCA0000220FFF7BDFE0A2002F0A7FA5B48006AE7
:10CCB00020F00400594908620846006A20F4C04088
:10CCC00000F5C04008620020FFF7B4FF012002F029
:10CCD00094FA10BD70B505460C46032C01DC012CFE
:10CCE00001D1012070BD05EB0510C0EBC5104B490B
:10CCF0000844006A64F34E3005EB0511C1EBC51121
:10CD0000464A114408622846FFF794FF0020E9E7ED
:10CD100010B5044600212046FFF792FE0322414948
:10CD20000120FFF732FF01212046FFF789FE3D4831
:10CD3000007800043B49497840EA01203949897864
:10CD4000084304EB0411C1EBC411344A11440860D8
:10CD500010BD10B5044600212046FFF771FE0322E6
:10CD600030490220FFF711FF01212046FFF768FE3E
:10CD70002C48007800042B49497840EA01202949D1
:10CD80008978084304EB0411C1EBC411234A114410
:10CD9000486010BD10B5044600212046FFF750FE44
:10CDA000032220491046FFF7F0FE01212046FFF73D
:10CDB00047FE1C48007800041A49497840EA0120DF
:10CDC00018498978084304EB0411C1EBC411134AD4
:10CDD0001144886010BD10B5044600212046FFF7BD
:10CDE0002FFE03220F490420FFF7CFFE012120462A
:10CDF000FFF726FE0B48007800040A49497840EA0C
:10CE0000012008498978084310BD000080012342B1
:10CE1000900121420008014000180140200200203A
:10CE2000500000205300002010B504460021204689
:10CE3000FFF706FE0322FE490520FFF7A6FE0121AB
:10CE40002046FFF7FDFD10BD10B504460021204629
:10CE5000FFF7F6FD0322F6490620FFF796FE0121B3
:10CE60002046FFF7EDFDF24800780004F0494978CC
:10CE700040EA0120EE498978084304EB0411C1EB34
:10CE8000C411EC4A1144486110BD10B5044600219C
:10CE90002046FFF7D5FD0322E5490720FFF775FE81
:10CEA00001212046FFF7CCFDE14800780004E0496D
:10CEB000497840EA0120DE498978084310BD10B561
:10CEC000044600212046FFF7BBFD0322D849082075
:10CED000FFF75BFE01212046FFF7B2FDD448007842
:10CEE0000004D349497840EA0120D14989780843B0
:10CEF00004EB0411C1EBC411CE4A1144C86110BD4A
:10CF000010B5044600212046FFF79AFD0222C849C9
:10CF10000920FFF73AFE01212046FFF791FD10BDE1
:10CF200070B504460D4600212046FFF789FD012D0E
:10CF300005D10122BE490D20FFF727FE04E00122A2
:10CF4000BB490E20FFF721FE01212046FFF778FDA7
:10CF5000012D0BD1B648007840B204EB0411C1EBAF
:10CF6000C411B44A114481F82C000AE0B04800789A
:10CF700040B204EB0411C1EBC411AE4A114481F874
:10CF80002D0070BD70B506460C461546AA490D70B9
:10CF900000213046FFF754FD012C05D10122A6499E
:10CFA0000D20FFF7DEFD04E00122A3490E20FFF76C
:10CFB000D8FD01213046FFF743FD70BD10B5044692
:10CFC00000212046FFF73CFD012299490F20FFF781
:10CFD000DCFD01212046FFF733FD9548007804EB86
:10CFE0000411C1EBC411934A114481F82E0010BD05
:10CFF00010B5044604EB0410C0EBC4108D4908447E
:10D0000090F82E008C49087000212046FFF718FD8B
:10D01000012289490F20FFF7B8FD01212046FFF7C3
:10D020000FFD10BD704710B5044604EB0410C0EBB3
:10D03000C4108049084490F832007F4908700021EC
:10D040002046FFF7FDFC01227B491020FFF79DFDE4
:10D0500001212046FFF7F4FC10BD10B50446602006
:10D06000754908702C20487000212046FFF7E8FC25
:10D07000022271490920FFF774FD01212046FFF7C4
:10D08000DFFC00BF012002F0B8F82046FFF738FFB0
:10D0900004EB0410C0EBC4106649084490F820006B
:10D0A000C0F340100028EDD100212046FFF7C8FC56
:10D0B00001225F492620FFF768FD01212046FFF786
:10D0C000BFFC5B48007840B204EB0411C1EBC41113
:10D0D000584A114481F8670010BD10B5044600217C
:10D0E0002046FFF7ADFC022251492720FFF74DFDF6
:10D0F00001212046FFF7A4FC4D4840784C490978AF
:10D1000040EA012004EB0411C1EBC411494A114467
:10D11000A1F8680004EB0410C0EBC41011460844E9
:10D12000B0F86800C000454991FBF0F004EB041131
:10D13000C1EBC4111144A1F86D0010BD10B5044637
:10D1400000212046FFF77CFC022239490B20FFF723
:10D150001CFD01212046FFF773FC35484078344917
:10D16000097840EA012004EB0411C1EBC411314AF3
:10D170001144088510BD10B5044600212046FFF774
:10D180005FFC02222A490C20FFF7FFFC0121204608
:10D19000FFF756FC10BD10B5044600212046FFF7EE
:10D1A0004FFC022222491D20FFF7EFFC01212046FF
:10D1B000FFF746FC1E4840781D49097840EA0120E7
:10D1C00004EB0411C1EBC4111A4A1144A1F8510037
:10D1D00010BD70B505460C462012174908704C70FA
:10D1E00000212846FFF72CFC022213491D20FFF7DF
:10D1F000CCFC01212846FFF723FC05EB0510C0EB12
:10D20000C5100C490844A0F8514070BD10B5044643
:10D2100004EB0410C0EBC41006490844B0F84F00FA
:10D2200000120549087004EB0410C0EBC41007E0BD
:10D23000530000202002002050000020FA3122027A
:10D24000FE49084490F84F00FD49487000212046EF
:10D25000FFF7F6FB0222FA491C20FFF782FC0121AE
:10D260002046FFF7EDFB10BD10B504460021204617
:10D27000FFF7E6FB0222F3491C20FFF786FC0121A1
:10D280002046FFF7DDFBEF484078EE49097840EA99
:10D29000012004EB0411C1EBC411E84A1144A1F8C8
:10D2A0004F0010BD70B505460C46022C00DA022472
:10D2B000E348047000212846FFF7C2FB0122E04941
:10D2C0001E20FFF762FC01212846FFF7B9FB05EBA2
:10D2D0000510C0EBC510D949084480F8534070BD13
:10D2E00010B5044600212046FFF7AAFB0122D549CC
:10D2F0001E20FFF74AFC01212046FFF7A1FBD14881
:10D30000007804EB0411C1EBC411CC4A114481F83C
:10D31000530010BD70B505460C46C9480470002185
:10D320002846FFF78DFB0122C5491F20FFF72DFC82
:10D3300001212846FFF784FB05EB0510C0EBC51063
:10D34000BE49084480F8544070BD10B50446002121
:10D350002046FFF775FB0122BA491F20FFF715FC95
:10D3600001212046FFF76CFBB648007804EB04115E
:10D37000C1EBC411B14A114481F8540010BD10B57D
:10D38000044600212046FFF75BFB0322AD49242021
:10D39000FFF7FBFB01212046FFF752FBA94800786D
:10D3A0000004A849497840EA0120A6498978084341
:10D3B00004EB0411C1EBC411A04A1144C1F85F0091
:10D3C00010BD10B5044600212046FFF739FB0322AB
:10D3D0009C492520FFF7D9FB01212046FFF730FBB0
:10D3E00010BD70B505460C469548047000212846CE
:10D3F000FFF726FB012292492120FFF7C6FB0121FE
:10D400002846FFF71DFB05EB0510C0EBC5108B4947
:10D41000084480F8564070BD2DE9F04104460021D3
:10D420002046FFF70DFB032286491720FFF7ADFBCF
:10D4300001212046FFF704FB82480078000481495F
:10D44000497840EA01207F49897840EA010504EBE8
:10D450000410C0EBC41079490844006C281A6421F8
:10D46000B0FBF1F004EB0411C1EBC411734A114499
:10D47000096C084404EB0411C1EBC41111440864A5
:10D4800004EB0411C1EBC4111144086C16F08CF8C4
:10D49000074604EB44006C4A02EB80008168384682
:10D4A00016F096F8064616F047F804EB0411C1EBA7
:10D4B000C411624A1144A1F84400BDE8F08170B57E
:10D4C000044600212046FFF7BBFA03225D491620DF
:10D4D000FFF75BFB01212046FFF7B2FA59480078BD
:10D4E00000045849497840EA01205649897840EAC1
:10D4F000010504EB0410C0EBC41050490844C06B94
:10D50000281A6421B0FBF1F004EB0411C1EBC41143
:10D510004A4A1144C96B084404EB0411C1EBC4111D
:10D520001144C86370BD10B5044600212046FFF7C2
:10D5300087FA032243492220FFF727FB01212046D7
:10D54000FFF77EFA3F48007800043E49497840EAF8
:10D5500001203C498978084304EB0411C1EBC41154
:10D56000364A1144C1F8570010BD10B5374800685D
:10D5700000F0020098B10220344908600020FFF753
:10D58000FAFD2E4890F82800C0F3C00010B100202A
:10D59000FFF7BEFB2E480088401C2D49088010BDB7
:10D5A0002A48006800F0200010B1202027490860B8
:10D5B0002648006800F4007018B14FF40070234949
:10D5C0000860704710B52148006800F0080040B1BD
:10D5D00008201E4908600020FFF71EFF0020FFF70B
:10D5E0006EFF10BD70B504462046FFF7C4FD01F084
:10D5F000C4FA064600BF01F0C0FA801B642801D9B6
:10D60000002070BD2046FFF799FD04EB0410C0EB2D
:10D61000C4100A49084490F82800C0F300100028FC
:10D62000E9D000212046FFF70BFA03220549172015
:10D63000FFF7ABFA012120460CE000002002002099
:10D64000500000205300002070030020140401400B
:10D6500058000020FFF7F4F9F84800780004F74973
:10D66000497840EA0120F549897840EA01052846D1
:10D67000C7E72DE9F0470446002600270AE02046C8
:10D68000FFF7B0FF054615B12E44781CC7B2642FD2
:10D6900000DB00E0F3E700BF6420B6FBF0F004EB32
:10D6A0000411C1EBC411E64A1144086404EB0411EF
:10D6B000C1EBC4111144086C15F076FF814604EBF0
:10D6C0004400E04A02EB80008168484615F080FF84
:10D6D000804615F031FF04EB0411C1EBC411D84AA8
:10D6E0001144A1F84400BDE8F08770B50446204617
:10D6F000FFF741FD01F041FA064600BF01F03DFA97
:10D70000801B642801D9002070BD2046FFF716FD5C
:10D7100004EB0410C0EBC410C949084490F8280079
:10D72000C0F300100028E9D000212046FFF788F957
:10D730000322C2491620FFF728FA01212046FFF7ED
:10D740007FF9BE4800780004BC49497840EA0120CE
:10D75000BA49897840EA01052846D5E72DE9F0471E
:10D760000446002600270AE02046FFF7BEFF0546D4
:10D7700015B12E44781CC7B2642F00DB00E0F3E73C
:10D7800000BF6420B6FBF0F004EB0411C1EBC41140
:10D79000AB4A1144C86304EB0411C1EBC41111443A
:10D7A000C86B15F001FF814604EB4400A64A02EB6A
:10D7B00080008168484615F00BFF804615F0BCFEDE
:10D7C00004EB0411C1EBC4119D4A1144A1F84600B9
:10D7D000BDE8F08710B5044600212046FFF730F978
:10D7E000022296491220FFF7D0F901212046FFF7C7
:10D7F00027F9924840789149097840EA012000B21F
:10D8000004EB0411C1EBC4118D4A1144A1F8350099
:10D8100010BD10B5044604EB0410C0EBC4108849D9
:10D820000844B0F83500000A8849087004EB041079
:10D83000C0EBC4108249084490F835008349487011
:10D8400000212046FFF7FCF8022280491220FFF752
:10D8500088F901212046FFF7F3F810BD10B5044602
:10D8600000212046FFF7ECF8012274491320FFF74E
:10D870008CF901212046FFF7E3F87048007804EBAB
:10D880000411C1EBC4116E4A114481F8370010BD78
:10D8900010B5044604EB0410C0EBC41068490844FA
:10D8A00090F837006949087000212046FFF7C8F852
:10D8B000012266491320FFF754F901212046FFF7A2
:10D8C000BFF810BD10B5044600212046FFF7B8F898
:10D8D00002225A491120FFF758F901212046FFF78B
:10D8E000AFF8564840785549097840EA012000B21F
:10D8F00004EB0411C1EBC411514A1144A1F83300E7
:10D9000010BD10B5044604EB0410C0EBC4104C4924
:10D910000844B0F83300000A4C49087004EB0410C6
:10D92000C0EBC4104649084490F83300474948709A
:10D9300000212046FFF784F8022244491120FFF716
:10D9400010F901212046FFF77BF810BD10B5044601
:10D9500000212046FFF774F8022238491A20FFF709
:10D9600014F901212046FFF76BF834484078334919
:10D97000097840EA012000B204EB0411C1EBC411A4
:10D980002F4A1144A1F84C0010BD10B5044604EB19
:10D990000410C0EBC4102A490844B0F84C00000A37
:10D9A0002A49087004EB0410C0EBC4102449084451
:10D9B00090F84C002549487000212046FFF740F8B8
:10D9C000022222491A20FFF7CCF801212046FFF756
:10D9D00037F810BD10B5044600212046FFF730F897
:10D9E000012216491B20FFF7D0F801212046FFF73E
:10D9F00027F81248007804EB0411C1EBC411104A57
:10DA0000114481F84E0010BD10B5044604EB04101B
:10DA1000C0EBC4100A49084490F84E000B49087046
:10DA200000212046FFF70CF8012208491B20FFF7D0
:10DA300098F801212046FFF703F810BD530000209D
:10DA400020020020700300209403002050000020DA
:10DA500010B5044600212046FEF7F2FF0122FE49E0
:10DA60001020FFF792F801212046FEF7E9FFFA485F
:10DA7000007840B204EB0411C1EBC411F74A114421
:10DA800081F8320010BD10B5044604EB0410C0EB61
:10DA9000C410F249084490F83200F149087000219E
:10DAA0002046FEF7CDFF0122ED491020FFF759F87F
:10DAB00001212046FEF7C4FF10BD2DE9F0470446C2
:10DAC0000D4616461F46DDE9099ADDF8208028B28A
:10DAD00004EB0411C1EBC411E04A1144A1F8350074
